{
	"test.sol": {
		"MyContract": {
			"abi": [
				{
					"inputs": [],
					"name": "deposit",
					"outputs": [],
					"stateMutability": "payable",
					"type": "function"
				},
				{
					"inputs": [],
					"name": "getBalance",
					"outputs": [
						{
							"internalType": "uint256",
							"name": "",
							"type": "uint256"
						}
					],
					"stateMutability": "view",
					"type": "function"
				},
				{
					"inputs": [
						{
							"internalType": "address payable",
							"name": "addr",
							"type": "address"
						},
						{
							"internalType": "uint256",
							"name": "amount",
							"type": "uint256"
						}
					],
					"name": "withdraw",
					"outputs": [],
					"stateMutability": "payable",
					"type": "function"
				}
			],
			"devdoc": {
				"kind": "dev",
				"methods": {},
				"version": 1
			},
			"evm": {
				"assembly": "    /* \"test.sol\":67:788  contract MyContract {... */\n  mstore(0x40, 0x80)\n  callvalue\n  dup1\n  iszero\n  tag_1\n  jumpi\n  0x00\n  dup1\n  revert\ntag_1:\n  pop\n  dataSize(sub_0)\n  dup1\n  dataOffset(sub_0)\n  0x00\n  codecopy\n  0x00\n  return\nstop\n\nsub_0: assembly {\n        /* \"test.sol\":67:788  contract MyContract {... */\n      mstore(0x40, 0x80)\n      jumpi(tag_1, lt(calldatasize, 0x04))\n      shr(0xe0, calldataload(0x00))\n      dup1\n      0x12065fe0\n      eq\n      tag_2\n      jumpi\n      dup1\n      0xd0e30db0\n      eq\n      tag_3\n      jumpi\n      dup1\n      0xf3fef3a3\n      eq\n      tag_4\n      jumpi\n    tag_1:\n      0x00\n      dup1\n      revert\n        /* \"test.sol\":612:784  function getBalance()public view returns (uint){... */\n    tag_2:\n      callvalue\n      dup1\n      iszero\n      tag_5\n      jumpi\n      0x00\n      dup1\n      revert\n    tag_5:\n      pop\n      tag_6\n      tag_7\n      jump\t// in\n    tag_6:\n      mload(0x40)\n      tag_8\n      swap2\n      swap1\n      tag_9\n      jump\t// in\n    tag_8:\n      mload(0x40)\n      dup1\n      swap2\n      sub\n      swap1\n      return\n        /* \"test.sol\":162:249  function deposit() external  payable {... */\n    tag_3:\n      tag_10\n      tag_11\n      jump\t// in\n    tag_10:\n      stop\n        /* \"test.sol\":286:585  function withdraw(address payable addr, uint amount) public payable {... */\n    tag_4:\n      tag_12\n      0x04\n      dup1\n      calldatasize\n      sub\n      dup2\n      add\n      swap1\n      tag_13\n      swap2\n      swap1\n      tag_14\n      jump\t// in\n    tag_13:\n      tag_15\n      jump\t// in\n    tag_12:\n      stop\n        /* \"test.sol\":612:784  function getBalance()public view returns (uint){... */\n    tag_7:\n        /* \"test.sol\":654:658  uint */\n      0x00\n        /* \"test.sol\":756:777  address(this).balance */\n      selfbalance\n        /* \"test.sol\":749:777  return address(this).balance */\n      swap1\n      pop\n        /* \"test.sol\":612:784  function getBalance()public view returns (uint){... */\n      swap1\n      jump\t// out\n        /* \"test.sol\":162:249  function deposit() external  payable {... */\n    tag_11:\n        /* \"test.sol\":233:242  msg.value */\n      callvalue\n        /* \"test.sol\":209:217  balances */\n      0x00\n        /* \"test.sol\":209:229  balances[msg.sender] */\n      dup1\n        /* \"test.sol\":218:228  msg.sender */\n      caller\n        /* \"test.sol\":209:229  balances[msg.sender] */\n      0xffffffffffffffffffffffffffffffffffffffff\n      and\n      0xffffffffffffffffffffffffffffffffffffffff\n      and\n      dup2\n      mstore\n      0x20\n      add\n      swap1\n      dup2\n      mstore\n      0x20\n      add\n      0x00\n      keccak256\n      0x00\n        /* \"test.sol\":209:242  balances[msg.sender] += msg.value */\n      dup3\n      dup3\n      sload\n      tag_18\n      swap2\n      swap1\n      tag_19\n      jump\t// in\n    tag_18:\n      swap3\n      pop\n      pop\n      dup2\n      swap1\n      sstore\n      pop\n        /* \"test.sol\":162:249  function deposit() external  payable {... */\n      jump\t// out\n        /* \"test.sol\":286:585  function withdraw(address payable addr, uint amount) public payable {... */\n    tag_15:\n        /* \"test.sol\":391:397  amount */\n      dup1\n        /* \"test.sol\":373:381  balances */\n      0x00\n        /* \"test.sol\":373:387  balances[addr] */\n      dup1\n        /* \"test.sol\":382:386  addr */\n      dup5\n        /* \"test.sol\":373:387  balances[addr] */\n      0xffffffffffffffffffffffffffffffffffffffff\n      and\n      0xffffffffffffffffffffffffffffffffffffffff\n      and\n      dup2\n      mstore\n      0x20\n      add\n      swap1\n      dup2\n      mstore\n      0x20\n      add\n      0x00\n      keccak256\n      sload\n        /* \"test.sol\":373:397  balances[addr] >= amount */\n      lt\n      iszero\n        /* \"test.sol\":364:419  require (balances[addr] >= amount, \"Insufficient Fund\") */\n      tag_21\n      jumpi\n      mload(0x40)\n      0x08c379a000000000000000000000000000000000000000000000000000000000\n      dup2\n      mstore\n      0x04\n      add\n      tag_22\n      swap1\n      tag_23\n      jump\t// in\n    tag_22:\n      mload(0x40)\n      dup1\n      swap2\n      sub\n      swap1\n      revert\n    tag_21:\n        /* \"test.sol\":431:440  bool sent */\n      0x00\n        /* \"test.sol\":443:460  bytes memory data */\n      dup1\n        /* \"test.sol\":464:468  addr */\n      dup4\n        /* \"test.sol\":464:473  addr.call */\n      0xffffffffffffffffffffffffffffffffffffffff\n      and\n        /* \"test.sol\":482:488  amount */\n      dup4\n        /* \"test.sol\":464:493  addr.call{value : amount}(\"\") */\n      mload(0x40)\n      tag_24\n      swap1\n      tag_25\n      jump\t// in\n    tag_24:\n      0x00\n      mload(0x40)\n      dup1\n      dup4\n      sub\n      dup2\n      dup6\n      dup8\n      gas\n      call\n      swap3\n      pop\n      pop\n      pop\n      returndatasize\n      dup1\n      0x00\n      dup2\n      eq\n      tag_28\n      jumpi\n      mload(0x40)\n      swap2\n      pop\n      and(add(returndatasize, 0x3f), not(0x1f))\n      dup3\n      add\n      0x40\n      mstore\n      returndatasize\n      dup3\n      mstore\n      returndatasize\n      0x00\n      0x20\n      dup5\n      add\n      returndatacopy\n      jump(tag_27)\n    tag_28:\n      0x60\n      swap2\n      pop\n    tag_27:\n      pop\n        /* \"test.sol\":430:493  (bool sent , bytes memory data) = addr.call{value : amount}(\"\") */\n      swap2\n      pop\n      swap2\n      pop\n        /* \"test.sol\":511:515  sent */\n      dup2\n        /* \"test.sol\":503:538  require(sent, \"Could not withdraw\") */\n      tag_29\n      jumpi\n      mload(0x40)\n      0x08c379a000000000000000000000000000000000000000000000000000000000\n      dup2\n      mstore\n      0x04\n      add\n      tag_30\n      swap1\n      tag_31\n      jump\t// in\n    tag_30:\n      mload(0x40)\n      dup1\n      swap2\n      sub\n      swap1\n      revert\n    tag_29:\n        /* \"test.sol\":572:578  amount */\n      dup3\n        /* \"test.sol\":548:556  balances */\n      0x00\n        /* \"test.sol\":548:568  balances[msg.sender] */\n      dup1\n        /* \"test.sol\":557:567  msg.sender */\n      caller\n        /* \"test.sol\":548:568  balances[msg.sender] */\n      0xffffffffffffffffffffffffffffffffffffffff\n      and\n      0xffffffffffffffffffffffffffffffffffffffff\n      and\n      dup2\n      mstore\n      0x20\n      add\n      swap1\n      dup2\n      mstore\n      0x20\n      add\n      0x00\n      keccak256\n      0x00\n        /* \"test.sol\":548:578  balances[msg.sender] -= amount */\n      dup3\n      dup3\n      sload\n      tag_32\n      swap2\n      swap1\n      tag_33\n      jump\t// in\n    tag_32:\n      swap3\n      pop\n      pop\n      dup2\n      swap1\n      sstore\n      pop\n        /* \"test.sol\":354:585  {... */\n      pop\n      pop\n        /* \"test.sol\":286:585  function withdraw(address payable addr, uint amount) public payable {... */\n      pop\n      pop\n      jump\t// out\n        /* \"#utility.yul\":7:84   */\n    tag_34:\n        /* \"#utility.yul\":44:51   */\n      0x00\n        /* \"#utility.yul\":73:78   */\n      dup2\n        /* \"#utility.yul\":62:78   */\n      swap1\n      pop\n        /* \"#utility.yul\":7:84   */\n      swap2\n      swap1\n      pop\n      jump\t// out\n        /* \"#utility.yul\":90:208   */\n    tag_35:\n        /* \"#utility.yul\":177:201   */\n      tag_57\n        /* \"#utility.yul\":195:200   */\n      dup2\n        /* \"#utility.yul\":177:201   */\n      tag_34\n      jump\t// in\n    tag_57:\n        /* \"#utility.yul\":172:175   */\n      dup3\n        /* \"#utility.yul\":165:202   */\n      mstore\n        /* \"#utility.yul\":90:208   */\n      pop\n      pop\n      jump\t// out\n        /* \"#utility.yul\":214:436   */\n    tag_9:\n        /* \"#utility.yul\":307:311   */\n      0x00\n        /* \"#utility.yul\":345:347   */\n      0x20\n        /* \"#utility.yul\":334:343   */\n      dup3\n        /* \"#utility.yul\":330:348   */\n      add\n        /* \"#utility.yul\":322:348   */\n      swap1\n      pop\n        /* \"#utility.yul\":358:429   */\n      tag_59\n        /* \"#utility.yul\":426:427   */\n      0x00\n        /* \"#utility.yul\":415:424   */\n      dup4\n        /* \"#utility.yul\":411:428   */\n      add\n        /* \"#utility.yul\":402:408   */\n      dup5\n        /* \"#utility.yul\":358:429   */\n      tag_35\n      jump\t// in\n    tag_59:\n        /* \"#utility.yul\":214:436   */\n      swap3\n      swap2\n      pop\n      pop\n      jump\t// out\n        /* \"#utility.yul\":523:640   */\n    tag_37:\n        /* \"#utility.yul\":632:633   */\n      0x00\n        /* \"#utility.yul\":629:630   */\n      dup1\n        /* \"#utility.yul\":622:634   */\n      revert\n        /* \"#utility.yul\":769:895   */\n    tag_39:\n        /* \"#utility.yul\":806:813   */\n      0x00\n        /* \"#utility.yul\":846:888   */\n      0xffffffffffffffffffffffffffffffffffffffff\n        /* \"#utility.yul\":839:844   */\n      dup3\n        /* \"#utility.yul\":835:889   */\n      and\n        /* \"#utility.yul\":824:889   */\n      swap1\n      pop\n        /* \"#utility.yul\":769:895   */\n      swap2\n      swap1\n      pop\n      jump\t// out\n        /* \"#utility.yul\":901:1005   */\n    tag_40:\n        /* \"#utility.yul\":946:953   */\n      0x00\n        /* \"#utility.yul\":975:999   */\n      tag_65\n        /* \"#utility.yul\":993:998   */\n      dup3\n        /* \"#utility.yul\":975:999   */\n      tag_39\n      jump\t// in\n    tag_65:\n        /* \"#utility.yul\":964:999   */\n      swap1\n      pop\n        /* \"#utility.yul\":901:1005   */\n      swap2\n      swap1\n      pop\n      jump\t// out\n        /* \"#utility.yul\":1011:1149   */\n    tag_41:\n        /* \"#utility.yul\":1092:1124   */\n      tag_67\n        /* \"#utility.yul\":1118:1123   */\n      dup2\n        /* \"#utility.yul\":1092:1124   */\n      tag_40\n      jump\t// in\n    tag_67:\n        /* \"#utility.yul\":1085:1090   */\n      dup2\n        /* \"#utility.yul\":1082:1125   */\n      eq\n        /* \"#utility.yul\":1072:1143   */\n      tag_68\n      jumpi\n        /* \"#utility.yul\":1139:1140   */\n      0x00\n        /* \"#utility.yul\":1136:1137   */\n      dup1\n        /* \"#utility.yul\":1129:1141   */\n      revert\n        /* \"#utility.yul\":1072:1143   */\n    tag_68:\n        /* \"#utility.yul\":1011:1149   */\n      pop\n      jump\t// out\n        /* \"#utility.yul\":1155:1310   */\n    tag_42:\n        /* \"#utility.yul\":1209:1214   */\n      0x00\n        /* \"#utility.yul\":1247:1253   */\n      dup2\n        /* \"#utility.yul\":1234:1254   */\n      calldataload\n        /* \"#utility.yul\":1225:1254   */\n      swap1\n      pop\n        /* \"#utility.yul\":1263:1304   */\n      tag_70\n        /* \"#utility.yul\":1298:1303   */\n      dup2\n        /* \"#utility.yul\":1263:1304   */\n      tag_41\n      jump\t// in\n    tag_70:\n        /* \"#utility.yul\":1155:1310   */\n      swap3\n      swap2\n      pop\n      pop\n      jump\t// out\n        /* \"#utility.yul\":1316:1438   */\n    tag_43:\n        /* \"#utility.yul\":1389:1413   */\n      tag_72\n        /* \"#utility.yul\":1407:1412   */\n      dup2\n        /* \"#utility.yul\":1389:1413   */\n      tag_34\n      jump\t// in\n    tag_72:\n        /* \"#utility.yul\":1382:1387   */\n      dup2\n        /* \"#utility.yul\":1379:1414   */\n      eq\n        /* \"#utility.yul\":1369:1432   */\n      tag_73\n      jumpi\n        /* \"#utility.yul\":1428:1429   */\n      0x00\n        /* \"#utility.yul\":1425:1426   */\n      dup1\n        /* \"#utility.yul\":1418:1430   */\n      revert\n        /* \"#utility.yul\":1369:1432   */\n    tag_73:\n        /* \"#utility.yul\":1316:1438   */\n      pop\n      jump\t// out\n        /* \"#utility.yul\":1444:1583   */\n    tag_44:\n        /* \"#utility.yul\":1490:1495   */\n      0x00\n        /* \"#utility.yul\":1528:1534   */\n      dup2\n        /* \"#utility.yul\":1515:1535   */\n      calldataload\n        /* \"#utility.yul\":1506:1535   */\n      swap1\n      pop\n        /* \"#utility.yul\":1544:1577   */\n      tag_75\n        /* \"#utility.yul\":1571:1576   */\n      dup2\n        /* \"#utility.yul\":1544:1577   */\n      tag_43\n      jump\t// in\n    tag_75:\n        /* \"#utility.yul\":1444:1583   */\n      swap3\n      swap2\n      pop\n      pop\n      jump\t// out\n        /* \"#utility.yul\":1589:2079   */\n    tag_14:\n        /* \"#utility.yul\":1665:1671   */\n      0x00\n        /* \"#utility.yul\":1673:1679   */\n      dup1\n        /* \"#utility.yul\":1722:1724   */\n      0x40\n        /* \"#utility.yul\":1710:1719   */\n      dup4\n        /* \"#utility.yul\":1701:1708   */\n      dup6\n        /* \"#utility.yul\":1697:1720   */\n      sub\n        /* \"#utility.yul\":1693:1725   */\n      slt\n        /* \"#utility.yul\":1690:1809   */\n      iszero\n      tag_77\n      jumpi\n        /* \"#utility.yul\":1728:1807   */\n      tag_78\n      tag_37\n      jump\t// in\n    tag_78:\n        /* \"#utility.yul\":1690:1809   */\n    tag_77:\n        /* \"#utility.yul\":1848:1849   */\n      0x00\n        /* \"#utility.yul\":1873:1934   */\n      tag_79\n        /* \"#utility.yul\":1926:1933   */\n      dup6\n        /* \"#utility.yul\":1917:1923   */\n      dup3\n        /* \"#utility.yul\":1906:1915   */\n      dup7\n        /* \"#utility.yul\":1902:1924   */\n      add\n        /* \"#utility.yul\":1873:1934   */\n      tag_42\n      jump\t// in\n    tag_79:\n        /* \"#utility.yul\":1863:1934   */\n      swap3\n      pop\n        /* \"#utility.yul\":1819:1944   */\n      pop\n        /* \"#utility.yul\":1983:1985   */\n      0x20\n        /* \"#utility.yul\":2009:2062   */\n      tag_80\n        /* \"#utility.yul\":2054:2061   */\n      dup6\n        /* \"#utility.yul\":2045:2051   */\n      dup3\n        /* \"#utility.yul\":2034:2043   */\n      dup7\n        /* \"#utility.yul\":2030:2052   */\n      add\n        /* \"#utility.yul\":2009:2062   */\n      tag_44\n      jump\t// in\n    tag_80:\n        /* \"#utility.yul\":1999:2062   */\n      swap2\n      pop\n        /* \"#utility.yul\":1954:2072   */\n      pop\n        /* \"#utility.yul\":1589:2079   */\n      swap3\n      pop\n      swap3\n      swap1\n      pop\n      jump\t// out\n        /* \"#utility.yul\":2085:2265   */\n    tag_45:\n        /* \"#utility.yul\":2133:2210   */\n      0x4e487b7100000000000000000000000000000000000000000000000000000000\n        /* \"#utility.yul\":2130:2131   */\n      0x00\n        /* \"#utility.yul\":2123:2211   */\n      mstore\n        /* \"#utility.yul\":2230:2234   */\n      0x11\n        /* \"#utility.yul\":2227:2228   */\n      0x04\n        /* \"#utility.yul\":2220:2235   */\n      mstore\n        /* \"#utility.yul\":2254:2258   */\n      0x24\n        /* \"#utility.yul\":2251:2252   */\n      0x00\n        /* \"#utility.yul\":2244:2259   */\n      revert\n        /* \"#utility.yul\":2271:2462   */\n    tag_19:\n        /* \"#utility.yul\":2311:2314   */\n      0x00\n        /* \"#utility.yul\":2330:2350   */\n      tag_83\n        /* \"#utility.yul\":2348:2349   */\n      dup3\n        /* \"#utility.yul\":2330:2350   */\n      tag_34\n      jump\t// in\n    tag_83:\n        /* \"#utility.yul\":2325:2350   */\n      swap2\n      pop\n        /* \"#utility.yul\":2364:2384   */\n      tag_84\n        /* \"#utility.yul\":2382:2383   */\n      dup4\n        /* \"#utility.yul\":2364:2384   */\n      tag_34\n      jump\t// in\n    tag_84:\n        /* \"#utility.yul\":2359:2384   */\n      swap3\n      pop\n        /* \"#utility.yul\":2407:2408   */\n      dup3\n        /* \"#utility.yul\":2404:2405   */\n      dup3\n        /* \"#utility.yul\":2400:2409   */\n      add\n        /* \"#utility.yul\":2393:2409   */\n      swap1\n      pop\n        /* \"#utility.yul\":2428:2431   */\n      dup1\n        /* \"#utility.yul\":2425:2426   */\n      dup3\n        /* \"#utility.yul\":2422:2432   */\n      gt\n        /* \"#utility.yul\":2419:2455   */\n      iszero\n      tag_85\n      jumpi\n        /* \"#utility.yul\":2435:2453   */\n      tag_86\n      tag_45\n      jump\t// in\n    tag_86:\n        /* \"#utility.yul\":2419:2455   */\n    tag_85:\n        /* \"#utility.yul\":2271:2462   */\n      swap3\n      swap2\n      pop\n      pop\n      jump\t// out\n        /* \"#utility.yul\":2468:2637   */\n    tag_46:\n        /* \"#utility.yul\":2552:2563   */\n      0x00\n        /* \"#utility.yul\":2586:2592   */\n      dup3\n        /* \"#utility.yul\":2581:2584   */\n      dup3\n        /* \"#utility.yul\":2574:2593   */\n      mstore\n        /* \"#utility.yul\":2626:2630   */\n      0x20\n        /* \"#utility.yul\":2621:2624   */\n      dup3\n        /* \"#utility.yul\":2617:2631   */\n      add\n        /* \"#utility.yul\":2602:2631   */\n      swap1\n      pop\n        /* \"#utility.yul\":2468:2637   */\n      swap3\n      swap2\n      pop\n      pop\n      jump\t// out\n        /* \"#utility.yul\":2643:2810   */\n    tag_47:\n        /* \"#utility.yul\":2783:2802   */\n      0x496e73756666696369656e742046756e64000000000000000000000000000000\n        /* \"#utility.yul\":2779:2780   */\n      0x00\n        /* \"#utility.yul\":2771:2777   */\n      dup3\n        /* \"#utility.yul\":2767:2781   */\n      add\n        /* \"#utility.yul\":2760:2803   */\n      mstore\n        /* \"#utility.yul\":2643:2810   */\n      pop\n      jump\t// out\n        /* \"#utility.yul\":2816:3182   */\n    tag_48:\n        /* \"#utility.yul\":2958:2961   */\n      0x00\n        /* \"#utility.yul\":2979:3046   */\n      tag_90\n        /* \"#utility.yul\":3043:3045   */\n      0x11\n        /* \"#utility.yul\":3038:3041   */\n      dup4\n        /* \"#utility.yul\":2979:3046   */\n      tag_46\n      jump\t// in\n    tag_90:\n        /* \"#utility.yul\":2972:3046   */\n      swap2\n      pop\n        /* \"#utility.yul\":3055:3148   */\n      tag_91\n        /* \"#utility.yul\":3144:3147   */\n      dup3\n        /* \"#utility.yul\":3055:3148   */\n      tag_47\n      jump\t// in\n    tag_91:\n        /* \"#utility.yul\":3173:3175   */\n      0x20\n        /* \"#utility.yul\":3168:3171   */\n      dup3\n        /* \"#utility.yul\":3164:3176   */\n      add\n        /* \"#utility.yul\":3157:3176   */\n      swap1\n      pop\n        /* \"#utility.yul\":2816:3182   */\n      swap2\n      swap1\n      pop\n      jump\t// out\n        /* \"#utility.yul\":3188:3607   */\n    tag_23:\n        /* \"#utility.yul\":3354:3358   */\n      0x00\n        /* \"#utility.yul\":3392:3394   */\n      0x20\n        /* \"#utility.yul\":3381:3390   */\n      dup3\n        /* \"#utility.yul\":3377:3395   */\n      add\n        /* \"#utility.yul\":3369:3395   */\n      swap1\n      pop\n        /* \"#utility.yul\":3441:3450   */\n      dup2\n        /* \"#utility.yul\":3435:3439   */\n      dup2\n        /* \"#utility.yul\":3431:3451   */\n      sub\n        /* \"#utility.yul\":3427:3428   */\n      0x00\n        /* \"#utility.yul\":3416:3425   */\n      dup4\n        /* \"#utility.yul\":3412:3429   */\n      add\n        /* \"#utility.yul\":3405:3452   */\n      mstore\n        /* \"#utility.yul\":3469:3600   */\n      tag_93\n        /* \"#utility.yul\":3595:3599   */\n      dup2\n        /* \"#utility.yul\":3469:3600   */\n      tag_48\n      jump\t// in\n    tag_93:\n        /* \"#utility.yul\":3461:3600   */\n      swap1\n      pop\n        /* \"#utility.yul\":3188:3607   */\n      swap2\n      swap1\n      pop\n      jump\t// out\n        /* \"#utility.yul\":3613:3760   */\n    tag_49:\n        /* \"#utility.yul\":3714:3725   */\n      0x00\n        /* \"#utility.yul\":3751:3754   */\n      dup2\n        /* \"#utility.yul\":3736:3754   */\n      swap1\n      pop\n        /* \"#utility.yul\":3613:3760   */\n      swap3\n      swap2\n      pop\n      pop\n      jump\t// out\n        /* \"#utility.yul\":3766:3880   */\n    tag_50:\n      pop\n      jump\t// out\n        /* \"#utility.yul\":3886:4284   */\n    tag_51:\n        /* \"#utility.yul\":4045:4048   */\n      0x00\n        /* \"#utility.yul\":4066:4149   */\n      tag_97\n        /* \"#utility.yul\":4147:4148   */\n      0x00\n        /* \"#utility.yul\":4142:4145   */\n      dup4\n        /* \"#utility.yul\":4066:4149   */\n      tag_49\n      jump\t// in\n    tag_97:\n        /* \"#utility.yul\":4059:4149   */\n      swap2\n      pop\n        /* \"#utility.yul\":4158:4251   */\n      tag_98\n        /* \"#utility.yul\":4247:4250   */\n      dup3\n        /* \"#utility.yul\":4158:4251   */\n      tag_50\n      jump\t// in\n    tag_98:\n        /* \"#utility.yul\":4276:4277   */\n      0x00\n        /* \"#utility.yul\":4271:4274   */\n      dup3\n        /* \"#utility.yul\":4267:4278   */\n      add\n        /* \"#utility.yul\":4260:4278   */\n      swap1\n      pop\n        /* \"#utility.yul\":3886:4284   */\n      swap2\n      swap1\n      pop\n      jump\t// out\n        /* \"#utility.yul\":4290:4669   */\n    tag_25:\n        /* \"#utility.yul\":4474:4477   */\n      0x00\n        /* \"#utility.yul\":4496:4643   */\n      tag_100\n        /* \"#utility.yul\":4639:4642   */\n      dup3\n        /* \"#utility.yul\":4496:4643   */\n      tag_51\n      jump\t// in\n    tag_100:\n        /* \"#utility.yul\":4489:4643   */\n      swap2\n      pop\n        /* \"#utility.yul\":4660:4663   */\n      dup2\n        /* \"#utility.yul\":4653:4663   */\n      swap1\n      pop\n        /* \"#utility.yul\":4290:4669   */\n      swap2\n      swap1\n      pop\n      jump\t// out\n        /* \"#utility.yul\":4675:4843   */\n    tag_52:\n        /* \"#utility.yul\":4815:4835   */\n      0x436f756c64206e6f742077697468647261770000000000000000000000000000\n        /* \"#utility.yul\":4811:4812   */\n      0x00\n        /* \"#utility.yul\":4803:4809   */\n      dup3\n        /* \"#utility.yul\":4799:4813   */\n      add\n        /* \"#utility.yul\":4792:4836   */\n      mstore\n        /* \"#utility.yul\":4675:4843   */\n      pop\n      jump\t// out\n        /* \"#utility.yul\":4849:5215   */\n    tag_53:\n        /* \"#utility.yul\":4991:4994   */\n      0x00\n        /* \"#utility.yul\":5012:5079   */\n      tag_103\n        /* \"#utility.yul\":5076:5078   */\n      0x12\n        /* \"#utility.yul\":5071:5074   */\n      dup4\n        /* \"#utility.yul\":5012:5079   */\n      tag_46\n      jump\t// in\n    tag_103:\n        /* \"#utility.yul\":5005:5079   */\n      swap2\n      pop\n        /* \"#utility.yul\":5088:5181   */\n      tag_104\n        /* \"#utility.yul\":5177:5180   */\n      dup3\n        /* \"#utility.yul\":5088:5181   */\n      tag_52\n      jump\t// in\n    tag_104:\n        /* \"#utility.yul\":5206:5208   */\n      0x20\n        /* \"#utility.yul\":5201:5204   */\n      dup3\n        /* \"#utility.yul\":5197:5209   */\n      add\n        /* \"#utility.yul\":5190:5209   */\n      swap1\n      pop\n        /* \"#utility.yul\":4849:5215   */\n      swap2\n      swap1\n      pop\n      jump\t// out\n        /* \"#utility.yul\":5221:5640   */\n    tag_31:\n        /* \"#utility.yul\":5387:5391   */\n      0x00\n        /* \"#utility.yul\":5425:5427   */\n      0x20\n        /* \"#utility.yul\":5414:5423   */\n      dup3\n        /* \"#utility.yul\":5410:5428   */\n      add\n        /* \"#utility.yul\":5402:5428   */\n      swap1\n      pop\n        /* \"#utility.yul\":5474:5483   */\n      dup2\n        /* \"#utility.yul\":5468:5472   */\n      dup2\n        /* \"#utility.yul\":5464:5484   */\n      sub\n        /* \"#utility.yul\":5460:5461   */\n      0x00\n        /* \"#utility.yul\":5449:5458   */\n      dup4\n        /* \"#utility.yul\":5445:5462   */\n      add\n        /* \"#utility.yul\":5438:5485   */\n      mstore\n        /* \"#utility.yul\":5502:5633   */\n      tag_106\n        /* \"#utility.yul\":5628:5632   */\n      dup2\n        /* \"#utility.yul\":5502:5633   */\n      tag_53\n      jump\t// in\n    tag_106:\n        /* \"#utility.yul\":5494:5633   */\n      swap1\n      pop\n        /* \"#utility.yul\":5221:5640   */\n      swap2\n      swap1\n      pop\n      jump\t// out\n        /* \"#utility.yul\":5646:5840   */\n    tag_33:\n        /* \"#utility.yul\":5686:5690   */\n      0x00\n        /* \"#utility.yul\":5706:5726   */\n      tag_108\n        /* \"#utility.yul\":5724:5725   */\n      dup3\n        /* \"#utility.yul\":5706:5726   */\n      tag_34\n      jump\t// in\n    tag_108:\n        /* \"#utility.yul\":5701:5726   */\n      swap2\n      pop\n        /* \"#utility.yul\":5740:5760   */\n      tag_109\n        /* \"#utility.yul\":5758:5759   */\n      dup4\n        /* \"#utility.yul\":5740:5760   */\n      tag_34\n      jump\t// in\n    tag_109:\n        /* \"#utility.yul\":5735:5760   */\n      swap3\n      pop\n        /* \"#utility.yul\":5784:5785   */\n      dup3\n        /* \"#utility.yul\":5781:5782   */\n      dup3\n        /* \"#utility.yul\":5777:5786   */\n      sub\n        /* \"#utility.yul\":5769:5786   */\n      swap1\n      pop\n        /* \"#utility.yul\":5808:5809   */\n      dup2\n        /* \"#utility.yul\":5802:5806   */\n      dup2\n        /* \"#utility.yul\":5799:5810   */\n      gt\n        /* \"#utility.yul\":5796:5833   */\n      iszero\n      tag_110\n      jumpi\n        /* \"#utility.yul\":5813:5831   */\n      tag_111\n      tag_45\n      jump\t// in\n    tag_111:\n        /* \"#utility.yul\":5796:5833   */\n    tag_110:\n        /* \"#utility.yul\":5646:5840   */\n      swap3\n      swap2\n      pop\n      pop\n      jump\t// out\n\n    auxdata: 0xa2646970667358221220f3cab739290bfbe8bd0255c4fd73e57f6461a0c38304fc59f244afef5ba3cd3264736f6c634300081a0033\n}\n",
				"bytecode": {
					"linkReferences": {},
					"object": "6080604052348015600e575f80fd5b506105448061001c5f395ff3fe608060405260043610610033575f3560e01c806312065fe014610037578063d0e30db014610061578063f3fef3a31461006b575b5f80fd5b348015610042575f80fd5b5061004b610087565b604051610058919061027b565b60405180910390f35b61006961008e565b005b6100856004803603810190610080919061031c565b6100e2565b005b5f47905090565b345f803373ffffffffffffffffffffffffffffffffffffffff1673ffffffffffffffffffffffffffffffffffffffff1681526020019081526020015f205f8282546100d99190610387565b92505081905550565b805f808473ffffffffffffffffffffffffffffffffffffffff1673ffffffffffffffffffffffffffffffffffffffff1681526020019081526020015f20541015610161576040517f08c379a000000000000000000000000000000000000000000000000000000000815260040161015890610414565b60405180910390fd5b5f808373ffffffffffffffffffffffffffffffffffffffff16836040516101879061045f565b5f6040518083038185875af1925050503d805f81146101c1576040519150601f19603f3d011682016040523d82523d5f602084013e6101c6565b606091505b50915091508161020b576040517f08c379a0000000000000000000000000000000000000000000000000000000008152600401610202906104bd565b60405180910390fd5b825f803373ffffffffffffffffffffffffffffffffffffffff1673ffffffffffffffffffffffffffffffffffffffff1681526020019081526020015f205f82825461025691906104db565b9250508190555050505050565b5f819050919050565b61027581610263565b82525050565b5f60208201905061028e5f83018461026c565b92915050565b5f80fd5b5f73ffffffffffffffffffffffffffffffffffffffff82169050919050565b5f6102c182610298565b9050919050565b6102d1816102b7565b81146102db575f80fd5b50565b5f813590506102ec816102c8565b92915050565b6102fb81610263565b8114610305575f80fd5b50565b5f81359050610316816102f2565b92915050565b5f806040838503121561033257610331610294565b5b5f61033f858286016102de565b925050602061035085828601610308565b9150509250929050565b7f4e487b71000000000000000000000000000000000000000000000000000000005f52601160045260245ffd5b5f61039182610263565b915061039c83610263565b92508282019050808211156103b4576103b361035a565b5b92915050565b5f82825260208201905092915050565b7f496e73756666696369656e742046756e640000000000000000000000000000005f82015250565b5f6103fe6011836103ba565b9150610409826103ca565b602082019050919050565b5f6020820190508181035f83015261042b816103f2565b9050919050565b5f81905092915050565b50565b5f61044a5f83610432565b91506104558261043c565b5f82019050919050565b5f6104698261043f565b9150819050919050565b7f436f756c64206e6f7420776974686472617700000000000000000000000000005f82015250565b5f6104a76012836103ba565b91506104b282610473565b602082019050919050565b5f6020820190508181035f8301526104d48161049b565b9050919050565b5f6104e582610263565b91506104f083610263565b92508282039050818111156105085761050761035a565b5b9291505056fea2646970667358221220f3cab739290bfbe8bd0255c4fd73e57f6461a0c38304fc59f244afef5ba3cd3264736f6c634300081a0033",
					"opcodes": "PUSH1 0x80 PUSH1 0x40 MSTORE CALLVALUE DUP1 ISZERO PUSH1 0xE JUMPI PUSH0 DUP1 REVERT JUMPDEST POP PUSH2 0x544 DUP1 PUSH2 0x1C PUSH0 CODECOPY PUSH0 RETURN INVALID PUSH1 0x80 PUSH1 0x40 MSTORE PUSH1 0x4 CALLDATASIZE LT PUSH2 0x33 JUMPI PUSH0 CALLDATALOAD PUSH1 0xE0 SHR DUP1 PUSH4 0x12065FE0 EQ PUSH2 0x37 JUMPI DUP1 PUSH4 0xD0E30DB0 EQ PUSH2 0x61 JUMPI DUP1 PUSH4 0xF3FEF3A3 EQ PUSH2 0x6B JUMPI JUMPDEST PUSH0 DUP1 REVERT JUMPDEST CALLVALUE DUP1 ISZERO PUSH2 0x42 JUMPI PUSH0 DUP1 REVERT JUMPDEST POP PUSH2 0x4B PUSH2 0x87 JUMP JUMPDEST PUSH1 0x40 MLOAD PUSH2 0x58 SWAP2 SWAP1 PUSH2 0x27B JUMP JUMPDEST PUSH1 0x40 MLOAD DUP1 SWAP2 SUB SWAP1 RETURN JUMPDEST PUSH2 0x69 PUSH2 0x8E JUMP JUMPDEST STOP JUMPDEST PUSH2 0x85 PUSH1 0x4 DUP1 CALLDATASIZE SUB DUP2 ADD SWAP1 PUSH2 0x80 SWAP2 SWAP1 PUSH2 0x31C JUMP JUMPDEST PUSH2 0xE2 JUMP JUMPDEST STOP JUMPDEST PUSH0 SELFBALANCE SWAP1 POP SWAP1 JUMP JUMPDEST CALLVALUE PUSH0 DUP1 CALLER PUSH20 0xFFFFFFFFFFFFFFFFFFFFFFFFFFFFFFFFFFFFFFFF AND PUSH20 0xFFFFFFFFFFFFFFFFFFFFFFFFFFFFFFFFFFFFFFFF AND DUP2 MSTORE PUSH1 0x20 ADD SWAP1 DUP2 MSTORE PUSH1 0x20 ADD PUSH0 KECCAK256 PUSH0 DUP3 DUP3 SLOAD PUSH2 0xD9 SWAP2 SWAP1 PUSH2 0x387 JUMP JUMPDEST SWAP3 POP POP DUP2 SWAP1 SSTORE POP JUMP JUMPDEST DUP1 PUSH0 DUP1 DUP5 PUSH20 0xFFFFFFFFFFFFFFFFFFFFFFFFFFFFFFFFFFFFFFFF AND PUSH20 0xFFFFFFFFFFFFFFFFFFFFFFFFFFFFFFFFFFFFFFFF AND DUP2 MSTORE PUSH1 0x20 ADD SWAP1 DUP2 MSTORE PUSH1 0x20 ADD PUSH0 KECCAK256 SLOAD LT ISZERO PUSH2 0x161 JUMPI PUSH1 0x40 MLOAD PUSH32 0x8C379A000000000000000000000000000000000000000000000000000000000 DUP2 MSTORE PUSH1 0x4 ADD PUSH2 0x158 SWAP1 PUSH2 0x414 JUMP JUMPDEST PUSH1 0x40 MLOAD DUP1 SWAP2 SUB SWAP1 REVERT JUMPDEST PUSH0 DUP1 DUP4 PUSH20 0xFFFFFFFFFFFFFFFFFFFFFFFFFFFFFFFFFFFFFFFF AND DUP4 PUSH1 0x40 MLOAD PUSH2 0x187 SWAP1 PUSH2 0x45F JUMP JUMPDEST PUSH0 PUSH1 0x40 MLOAD DUP1 DUP4 SUB DUP2 DUP6 DUP8 GAS CALL SWAP3 POP POP POP RETURNDATASIZE DUP1 PUSH0 DUP2 EQ PUSH2 0x1C1 JUMPI PUSH1 0x40 MLOAD SWAP2 POP PUSH1 0x1F NOT PUSH1 0x3F RETURNDATASIZE ADD AND DUP3 ADD PUSH1 0x40 MSTORE RETURNDATASIZE DUP3 MSTORE RETURNDATASIZE PUSH0 PUSH1 0x20 DUP5 ADD RETURNDATACOPY PUSH2 0x1C6 JUMP JUMPDEST PUSH1 0x60 SWAP2 POP JUMPDEST POP SWAP2 POP SWAP2 POP DUP2 PUSH2 0x20B JUMPI PUSH1 0x40 MLOAD PUSH32 0x8C379A000000000000000000000000000000000000000000000000000000000 DUP2 MSTORE PUSH1 0x4 ADD PUSH2 0x202 SWAP1 PUSH2 0x4BD JUMP JUMPDEST PUSH1 0x40 MLOAD DUP1 SWAP2 SUB SWAP1 REVERT JUMPDEST DUP3 PUSH0 DUP1 CALLER PUSH20 0xFFFFFFFFFFFFFFFFFFFFFFFFFFFFFFFFFFFFFFFF AND PUSH20 0xFFFFFFFFFFFFFFFFFFFFFFFFFFFFFFFFFFFFFFFF AND DUP2 MSTORE PUSH1 0x20 ADD SWAP1 DUP2 MSTORE PUSH1 0x20 ADD PUSH0 KECCAK256 PUSH0 DUP3 DUP3 SLOAD PUSH2 0x256 SWAP2 SWAP1 PUSH2 0x4DB JUMP JUMPDEST SWAP3 POP POP DUP2 SWAP1 SSTORE POP POP POP POP POP JUMP JUMPDEST PUSH0 DUP2 SWAP1 POP SWAP2 SWAP1 POP JUMP JUMPDEST PUSH2 0x275 DUP2 PUSH2 0x263 JUMP JUMPDEST DUP3 MSTORE POP POP JUMP JUMPDEST PUSH0 PUSH1 0x20 DUP3 ADD SWAP1 POP PUSH2 0x28E PUSH0 DUP4 ADD DUP5 PUSH2 0x26C JUMP JUMPDEST SWAP3 SWAP2 POP POP JUMP JUMPDEST PUSH0 DUP1 REVERT JUMPDEST PUSH0 PUSH20 0xFFFFFFFFFFFFFFFFFFFFFFFFFFFFFFFFFFFFFFFF DUP3 AND SWAP1 POP SWAP2 SWAP1 POP JUMP JUMPDEST PUSH0 PUSH2 0x2C1 DUP3 PUSH2 0x298 JUMP JUMPDEST SWAP1 POP SWAP2 SWAP1 POP JUMP JUMPDEST PUSH2 0x2D1 DUP2 PUSH2 0x2B7 JUMP JUMPDEST DUP2 EQ PUSH2 0x2DB JUMPI PUSH0 DUP1 REVERT JUMPDEST POP JUMP JUMPDEST PUSH0 DUP2 CALLDATALOAD SWAP1 POP PUSH2 0x2EC DUP2 PUSH2 0x2C8 JUMP JUMPDEST SWAP3 SWAP2 POP POP JUMP JUMPDEST PUSH2 0x2FB DUP2 PUSH2 0x263 JUMP JUMPDEST DUP2 EQ PUSH2 0x305 JUMPI PUSH0 DUP1 REVERT JUMPDEST POP JUMP JUMPDEST PUSH0 DUP2 CALLDATALOAD SWAP1 POP PUSH2 0x316 DUP2 PUSH2 0x2F2 JUMP JUMPDEST SWAP3 SWAP2 POP POP JUMP JUMPDEST PUSH0 DUP1 PUSH1 0x40 DUP4 DUP6 SUB SLT ISZERO PUSH2 0x332 JUMPI PUSH2 0x331 PUSH2 0x294 JUMP JUMPDEST JUMPDEST PUSH0 PUSH2 0x33F DUP6 DUP3 DUP7 ADD PUSH2 0x2DE JUMP JUMPDEST SWAP3 POP POP PUSH1 0x20 PUSH2 0x350 DUP6 DUP3 DUP7 ADD PUSH2 0x308 JUMP JUMPDEST SWAP2 POP POP SWAP3 POP SWAP3 SWAP1 POP JUMP JUMPDEST PUSH32 0x4E487B7100000000000000000000000000000000000000000000000000000000 PUSH0 MSTORE PUSH1 0x11 PUSH1 0x4 MSTORE PUSH1 0x24 PUSH0 REVERT JUMPDEST PUSH0 PUSH2 0x391 DUP3 PUSH2 0x263 JUMP JUMPDEST SWAP2 POP PUSH2 0x39C DUP4 PUSH2 0x263 JUMP JUMPDEST SWAP3 POP DUP3 DUP3 ADD SWAP1 POP DUP1 DUP3 GT ISZERO PUSH2 0x3B4 JUMPI PUSH2 0x3B3 PUSH2 0x35A JUMP JUMPDEST JUMPDEST SWAP3 SWAP2 POP POP JUMP JUMPDEST PUSH0 DUP3 DUP3 MSTORE PUSH1 0x20 DUP3 ADD SWAP1 POP SWAP3 SWAP2 POP POP JUMP JUMPDEST PUSH32 0x496E73756666696369656E742046756E64000000000000000000000000000000 PUSH0 DUP3 ADD MSTORE POP JUMP JUMPDEST PUSH0 PUSH2 0x3FE PUSH1 0x11 DUP4 PUSH2 0x3BA JUMP JUMPDEST SWAP2 POP PUSH2 0x409 DUP3 PUSH2 0x3CA JUMP JUMPDEST PUSH1 0x20 DUP3 ADD SWAP1 POP SWAP2 SWAP1 POP JUMP JUMPDEST PUSH0 PUSH1 0x20 DUP3 ADD SWAP1 POP DUP2 DUP2 SUB PUSH0 DUP4 ADD MSTORE PUSH2 0x42B DUP2 PUSH2 0x3F2 JUMP JUMPDEST SWAP1 POP SWAP2 SWAP1 POP JUMP JUMPDEST PUSH0 DUP2 SWAP1 POP SWAP3 SWAP2 POP POP JUMP JUMPDEST POP JUMP JUMPDEST PUSH0 PUSH2 0x44A PUSH0 DUP4 PUSH2 0x432 JUMP JUMPDEST SWAP2 POP PUSH2 0x455 DUP3 PUSH2 0x43C JUMP JUMPDEST PUSH0 DUP3 ADD SWAP1 POP SWAP2 SWAP1 POP JUMP JUMPDEST PUSH0 PUSH2 0x469 DUP3 PUSH2 0x43F JUMP JUMPDEST SWAP2 POP DUP2 SWAP1 POP SWAP2 SWAP1 POP JUMP JUMPDEST PUSH32 0x436F756C64206E6F742077697468647261770000000000000000000000000000 PUSH0 DUP3 ADD MSTORE POP JUMP JUMPDEST PUSH0 PUSH2 0x4A7 PUSH1 0x12 DUP4 PUSH2 0x3BA JUMP JUMPDEST SWAP2 POP PUSH2 0x4B2 DUP3 PUSH2 0x473 JUMP JUMPDEST PUSH1 0x20 DUP3 ADD SWAP1 POP SWAP2 SWAP1 POP JUMP JUMPDEST PUSH0 PUSH1 0x20 DUP3 ADD SWAP1 POP DUP2 DUP2 SUB PUSH0 DUP4 ADD MSTORE PUSH2 0x4D4 DUP2 PUSH2 0x49B JUMP JUMPDEST SWAP1 POP SWAP2 SWAP1 POP JUMP JUMPDEST PUSH0 PUSH2 0x4E5 DUP3 PUSH2 0x263 JUMP JUMPDEST SWAP2 POP PUSH2 0x4F0 DUP4 PUSH2 0x263 JUMP JUMPDEST SWAP3 POP DUP3 DUP3 SUB SWAP1 POP DUP2 DUP2 GT ISZERO PUSH2 0x508 JUMPI PUSH2 0x507 PUSH2 0x35A JUMP JUMPDEST JUMPDEST SWAP3 SWAP2 POP POP JUMP INVALID LOG2 PUSH5 0x6970667358 0x22 SLT KECCAK256 RETURN 0xCA 0xB7 CODECOPY 0x29 SIGNEXTEND 0xFB 0xE8 0xBD MUL SSTORE 0xC4 REVERT PUSH20 0xE57F6461A0C38304FC59F244AFEF5BA3CD326473 PUSH16 0x6C634300081A00330000000000000000 "
				},
				"gasEstimates": {
					"creation": {
						"codeDepositCost": "269600",
						"executionCost": "310",
						"totalCost": "269910"
					},
					"external": {
						"deposit()": "infinite",
						"getBalance()": "312",
						"withdraw(address,uint256)": "infinite"
					}
				},
				"methodIdentifiers": {
					"deposit()": "d0e30db0",
					"getBalance()": "12065fe0",
					"withdraw(address,uint256)": "f3fef3a3"
				}
			},
			"storageLayout": {
				"storage": [
					{
						"astId": 5,
						"contract": "test.sol:MyContract",
						"label": "balances",
						"offset": 0,
						"slot": "0",
						"type": "t_mapping(t_address,t_uint256)"
					}
				],
				"types": {
					"t_address": {
						"encoding": "inplace",
						"label": "address",
						"numberOfBytes": "20"
					},
					"t_mapping(t_address,t_uint256)": {
						"encoding": "mapping",
						"key": "t_address",
						"label": "mapping(address => uint256)",
						"numberOfBytes": "32",
						"value": "t_uint256"
					},
					"t_uint256": {
						"encoding": "inplace",
						"label": "uint256",
						"numberOfBytes": "32"
					}
				}
			},
			"userdoc": {
				"kind": "user",
				"methods": {},
				"version": 1
			}
		}
	}
}