{
	"data": {
		"bytecode": {
			"linkReferences": {},
			"object": "6080604052348015600e575f80fd5b506103a48061001c5f395ff3fe60806040526004361061003e575f3560e01c80630c11dedd1461004257806312065fe01461005e578063256fec8814610088578063a3e76c0f146100b2575b5f80fd5b61005c60048036038101906100579190610220565b6100bc565b005b348015610069575f80fd5b50610072610173565b60405161007f9190610263565b60405180910390f35b348015610093575f80fd5b5061009c61017a565b6040516100a9919061029c565b60405180910390f35b6100ba61019d565b005b5f808273ffffffffffffffffffffffffffffffffffffffff16670de0b6b3a76400006040516100ea906102e2565b5f6040518083038185875af1925050503d805f8114610124576040519150601f19603f3d011682016040523d82523d5f602084013e610129565b606091505b50915091508161016e576040517f08c379a000000000000000000000000000000000000000000000000000000000815260040161016590610350565b60405180910390fd5b505050565b5f47905090565b5f8054906101000a900473ffffffffffffffffffffffffffffffffffffffff1681565b3373ffffffffffffffffffffffffffffffffffffffff165f8054906101000a90505050565b5f80fd5b5f73ffffffffffffffffffffffffffffffffffffffff82169050919050565b5f6101ef826101c6565b9050919050565b6101ff816101e5565b8114610209575f80fd5b50565b5f8135905061021a816101f6565b92915050565b5f60208284031215610235576102346101c2565b5b5f6102428482850161020c565b91505092915050565b5f819050919050565b61025d8161024b565b82525050565b5f6020820190506102765f830184610254565b92915050565b5f610286826101c6565b9050919050565b6102968161027c565b82525050565b5f6020820190506102af5f83018461028d565b92915050565b5f81905092915050565b50565b5f6102cd5f836102b5565b91506102d8826102bf565b5f82019050919050565b5f6102ec826102c2565b9150819050919050565b5f82825260208201905092915050565b7f4572726f722073656e64696e67204574680000000000000000000000000000005f82015250565b5f61033a6011836102f6565b915061034582610306565b602082019050919050565b5f6020820190508181035f8301526103678161032e565b905091905056fea2646970667358221220797fe4e6cb0c56998ec2bd7011b1f4b95a8fd572b88f2497b142a98b72d4678e64736f6c634300081a0033",
			"opcodes": "PUSH1 0x80 PUSH1 0x40 MSTORE CALLVALUE DUP1 ISZERO PUSH1 0xE JUMPI PUSH0 DUP1 REVERT JUMPDEST POP PUSH2 0x3A4 DUP1 PUSH2 0x1C PUSH0 CODECOPY PUSH0 RETURN INVALID PUSH1 0x80 PUSH1 0x40 MSTORE PUSH1 0x4 CALLDATASIZE LT PUSH2 0x3E JUMPI PUSH0 CALLDATALOAD PUSH1 0xE0 SHR DUP1 PUSH4 0xC11DEDD EQ PUSH2 0x42 JUMPI DUP1 PUSH4 0x12065FE0 EQ PUSH2 0x5E JUMPI DUP1 PUSH4 0x256FEC88 EQ PUSH2 0x88 JUMPI DUP1 PUSH4 0xA3E76C0F EQ PUSH2 0xB2 JUMPI JUMPDEST PUSH0 DUP1 REVERT JUMPDEST PUSH2 0x5C PUSH1 0x4 DUP1 CALLDATASIZE SUB DUP2 ADD SWAP1 PUSH2 0x57 SWAP2 SWAP1 PUSH2 0x220 JUMP JUMPDEST PUSH2 0xBC JUMP JUMPDEST STOP JUMPDEST CALLVALUE DUP1 ISZERO PUSH2 0x69 JUMPI PUSH0 DUP1 REVERT JUMPDEST POP PUSH2 0x72 PUSH2 0x173 JUMP JUMPDEST PUSH1 0x40 MLOAD PUSH2 0x7F SWAP2 SWAP1 PUSH2 0x263 JUMP JUMPDEST PUSH1 0x40 MLOAD DUP1 SWAP2 SUB SWAP1 RETURN JUMPDEST CALLVALUE DUP1 ISZERO PUSH2 0x93 JUMPI PUSH0 DUP1 REVERT JUMPDEST POP PUSH2 0x9C PUSH2 0x17A JUMP JUMPDEST PUSH1 0x40 MLOAD PUSH2 0xA9 SWAP2 SWAP1 PUSH2 0x29C JUMP JUMPDEST PUSH1 0x40 MLOAD DUP1 SWAP2 SUB SWAP1 RETURN JUMPDEST PUSH2 0xBA PUSH2 0x19D JUMP JUMPDEST STOP JUMPDEST PUSH0 DUP1 DUP3 PUSH20 0xFFFFFFFFFFFFFFFFFFFFFFFFFFFFFFFFFFFFFFFF AND PUSH8 0xDE0B6B3A7640000 PUSH1 0x40 MLOAD PUSH2 0xEA SWAP1 PUSH2 0x2E2 JUMP JUMPDEST PUSH0 PUSH1 0x40 MLOAD DUP1 DUP4 SUB DUP2 DUP6 DUP8 GAS CALL SWAP3 POP POP POP RETURNDATASIZE DUP1 PUSH0 DUP2 EQ PUSH2 0x124 JUMPI PUSH1 0x40 MLOAD SWAP2 POP PUSH1 0x1F NOT PUSH1 0x3F RETURNDATASIZE ADD AND DUP3 ADD PUSH1 0x40 MSTORE RETURNDATASIZE DUP3 MSTORE RETURNDATASIZE PUSH0 PUSH1 0x20 DUP5 ADD RETURNDATACOPY PUSH2 0x129 JUMP JUMPDEST PUSH1 0x60 SWAP2 POP JUMPDEST POP SWAP2 POP SWAP2 POP DUP2 PUSH2 0x16E JUMPI PUSH1 0x40 MLOAD PUSH32 0x8C379A000000000000000000000000000000000000000000000000000000000 DUP2 MSTORE PUSH1 0x4 ADD PUSH2 0x165 SWAP1 PUSH2 0x350 JUMP JUMPDEST PUSH1 0x40 MLOAD DUP1 SWAP2 SUB SWAP1 REVERT JUMPDEST POP POP POP JUMP JUMPDEST PUSH0 SELFBALANCE SWAP1 POP SWAP1 JUMP JUMPDEST PUSH0 DUP1 SLOAD SWAP1 PUSH2 0x100 EXP SWAP1 DIV PUSH20 0xFFFFFFFFFFFFFFFFFFFFFFFFFFFFFFFFFFFFFFFF AND DUP2 JUMP JUMPDEST CALLER PUSH20 0xFFFFFFFFFFFFFFFFFFFFFFFFFFFFFFFFFFFFFFFF AND PUSH0 DUP1 SLOAD SWAP1 PUSH2 0x100 EXP SWAP1 POP POP POP JUMP JUMPDEST PUSH0 DUP1 REVERT JUMPDEST PUSH0 PUSH20 0xFFFFFFFFFFFFFFFFFFFFFFFFFFFFFFFFFFFFFFFF DUP3 AND SWAP1 POP SWAP2 SWAP1 POP JUMP JUMPDEST PUSH0 PUSH2 0x1EF DUP3 PUSH2 0x1C6 JUMP JUMPDEST SWAP1 POP SWAP2 SWAP1 POP JUMP JUMPDEST PUSH2 0x1FF DUP2 PUSH2 0x1E5 JUMP JUMPDEST DUP2 EQ PUSH2 0x209 JUMPI PUSH0 DUP1 REVERT JUMPDEST POP JUMP JUMPDEST PUSH0 DUP2 CALLDATALOAD SWAP1 POP PUSH2 0x21A DUP2 PUSH2 0x1F6 JUMP JUMPDEST SWAP3 SWAP2 POP POP JUMP JUMPDEST PUSH0 PUSH1 0x20 DUP3 DUP5 SUB SLT ISZERO PUSH2 0x235 JUMPI PUSH2 0x234 PUSH2 0x1C2 JUMP JUMPDEST JUMPDEST PUSH0 PUSH2 0x242 DUP5 DUP3 DUP6 ADD PUSH2 0x20C JUMP JUMPDEST SWAP2 POP POP SWAP3 SWAP2 POP POP JUMP JUMPDEST PUSH0 DUP2 SWAP1 POP SWAP2 SWAP1 POP JUMP JUMPDEST PUSH2 0x25D DUP2 PUSH2 0x24B JUMP JUMPDEST DUP3 MSTORE POP POP JUMP JUMPDEST PUSH0 PUSH1 0x20 DUP3 ADD SWAP1 POP PUSH2 0x276 PUSH0 DUP4 ADD DUP5 PUSH2 0x254 JUMP JUMPDEST SWAP3 SWAP2 POP POP JUMP JUMPDEST PUSH0 PUSH2 0x286 DUP3 PUSH2 0x1C6 JUMP JUMPDEST SWAP1 POP SWAP2 SWAP1 POP JUMP JUMPDEST PUSH2 0x296 DUP2 PUSH2 0x27C JUMP JUMPDEST DUP3 MSTORE POP POP JUMP JUMPDEST PUSH0 PUSH1 0x20 DUP3 ADD SWAP1 POP PUSH2 0x2AF PUSH0 DUP4 ADD DUP5 PUSH2 0x28D JUMP JUMPDEST SWAP3 SWAP2 POP POP JUMP JUMPDEST PUSH0 DUP2 SWAP1 POP SWAP3 SWAP2 POP POP JUMP JUMPDEST POP JUMP JUMPDEST PUSH0 PUSH2 0x2CD PUSH0 DUP4 PUSH2 0x2B5 JUMP JUMPDEST SWAP2 POP PUSH2 0x2D8 DUP3 PUSH2 0x2BF JUMP JUMPDEST PUSH0 DUP3 ADD SWAP1 POP SWAP2 SWAP1 POP JUMP JUMPDEST PUSH0 PUSH2 0x2EC DUP3 PUSH2 0x2C2 JUMP JUMPDEST SWAP2 POP DUP2 SWAP1 POP SWAP2 SWAP1 POP JUMP JUMPDEST PUSH0 DUP3 DUP3 MSTORE PUSH1 0x20 DUP3 ADD SWAP1 POP SWAP3 SWAP2 POP POP JUMP JUMPDEST PUSH32 0x4572726F722073656E64696E6720457468000000000000000000000000000000 PUSH0 DUP3 ADD MSTORE POP JUMP JUMPDEST PUSH0 PUSH2 0x33A PUSH1 0x11 DUP4 PUSH2 0x2F6 JUMP JUMPDEST SWAP2 POP PUSH2 0x345 DUP3 PUSH2 0x306 JUMP JUMPDEST PUSH1 0x20 DUP3 ADD SWAP1 POP SWAP2 SWAP1 POP JUMP JUMPDEST PUSH0 PUSH1 0x20 DUP3 ADD SWAP1 POP DUP2 DUP2 SUB PUSH0 DUP4 ADD MSTORE PUSH2 0x367 DUP2 PUSH2 0x32E JUMP JUMPDEST SWAP1 POP SWAP2 SWAP1 POP JUMP INVALID LOG2 PUSH5 0x6970667358 0x22 SLT KECCAK256 PUSH26 0x7FE4E6CB0C56998EC2BD7011B1F4B95A8FD572B88F2497B142A9 DUP12 PUSH19 0xD4678E64736F6C634300081A00330000000000 "
		},
		"gasEstimates": {
			"creation": {
				"codeDepositCost": "186400",
				"executionCost": "230",
				"totalCost": "186630"
			},
			"external": {
				"getBalance()": "334",
				"lastSender()": "2527",
				"pay(address)": "infinite",
				"receive()": "2301"
			}
		},
		"methodIdentifiers": {
			"getBalance()": "12065fe0",
			"lastSender()": "256fec88",
			"pay(address)": "0c11dedd",
			"receive()": "a3e76c0f"
		}
	},
	"abi": [
		{
			"inputs": [],
			"name": "getBalance",
			"outputs": [
				{
					"internalType": "uint256",
					"name": "",
					"type": "uint256"
				}
			],
			"stateMutability": "view",
			"type": "function"
		},
		{
			"inputs": [],
			"name": "lastSender",
			"outputs": [
				{
					"internalType": "address",
					"name": "",
					"type": "address"
				}
			],
			"stateMutability": "view",
			"type": "function"
		},
		{
			"inputs": [
				{
					"internalType": "address payable",
					"name": "addr",
					"type": "address"
				}
			],
			"name": "pay",
			"outputs": [],
			"stateMutability": "payable",
			"type": "function"
		},
		{
			"inputs": [],
			"name": "receive",
			"outputs": [],
			"stateMutability": "payable",
			"type": "function"
		}
	]
}